{
  "_format": "hh-sol-artifact-1",
  "contractName": "ManualToken",
  "sourceName": "contracts/ManualToken.sol",
  "abi": [
    {
      "inputs": [
        {
          "internalType": "address",
          "name": "",
          "type": "address"
        },
        {
          "internalType": "address",
          "name": "",
          "type": "address"
        }
      ],
      "name": "allowance",
      "outputs": [
        {
          "internalType": "uint256",
          "name": "",
          "type": "uint256"
        }
      ],
      "stateMutability": "view",
      "type": "function"
    },
    {
      "inputs": [
        {
          "internalType": "address",
          "name": "",
          "type": "address"
        }
      ],
      "name": "balanceOf",
      "outputs": [
        {
          "internalType": "uint256",
          "name": "",
          "type": "uint256"
        }
      ],
      "stateMutability": "view",
      "type": "function"
    },
    {
      "inputs": [
        {
          "internalType": "address",
          "name": "from",
          "type": "address"
        },
        {
          "internalType": "address",
          "name": "to",
          "type": "address"
        },
        {
          "internalType": "uint256",
          "name": "amount",
          "type": "uint256"
        }
      ],
      "name": "transfer",
      "outputs": [],
      "stateMutability": "nonpayable",
      "type": "function"
    },
    {
      "inputs": [],
      "name": "transferFrom",
      "outputs": [],
      "stateMutability": "nonpayable",
      "type": "function"
    }
  ],
  "bytecode": "0x608060405234801561001057600080fd5b50610439806100206000396000f3fe608060405234801561001057600080fd5b506004361061004c5760003560e01c806370a0823114610051578063811c34d314610081578063beabacc81461008b578063dd62ed3e146100a7575b600080fd5b61006b6004803603810190610066919061022a565b6100d7565b6040516100789190610270565b60405180910390f35b6100896100ef565b005b6100a560048036038101906100a091906102b7565b6100f1565b005b6100c160048036038101906100bc919061030a565b6101a2565b6040516100ce9190610270565b60405180910390f35b60016020528060005260406000206000915090505481565b565b80600160008573ffffffffffffffffffffffffffffffffffffffff1673ffffffffffffffffffffffffffffffffffffffff16815260200190815260200160002060008282546101409190610379565b9250508190555080600160008473ffffffffffffffffffffffffffffffffffffffff1673ffffffffffffffffffffffffffffffffffffffff168152602001908152602001600020600082825461019691906103ad565b92505081905550505050565b6002602052816000526040600020602052806000526040600020600091509150505481565b600080fd5b600073ffffffffffffffffffffffffffffffffffffffff82169050919050565b60006101f7826101cc565b9050919050565b610207816101ec565b811461021257600080fd5b50565b600081359050610224816101fe565b92915050565b6000602082840312156102405761023f6101c7565b5b600061024e84828501610215565b91505092915050565b6000819050919050565b61026a81610257565b82525050565b60006020820190506102856000830184610261565b92915050565b61029481610257565b811461029f57600080fd5b50565b6000813590506102b18161028b565b92915050565b6000806000606084860312156102d0576102cf6101c7565b5b60006102de86828701610215565b93505060206102ef86828701610215565b9250506040610300868287016102a2565b9150509250925092565b60008060408385031215610321576103206101c7565b5b600061032f85828601610215565b925050602061034085828601610215565b9150509250929050565b7f4e487b7100000000000000000000000000000000000000000000000000000000600052601160045260246000fd5b600061038482610257565b915061038f83610257565b9250828210156103a2576103a161034a565b5b828203905092915050565b60006103b882610257565b91506103c383610257565b9250827fffffffffffffffffffffffffffffffffffffffffffffffffffffffffffffffff038211156103f8576103f761034a565b5b82820190509291505056fea2646970667358221220fc1c9ed58778d9d98ed070076f668a9c6c5428cea9374e857941542ecf02e75f64736f6c63430008090033",
  "linkReferences": {},
  "deployedLinkReferences": {}
}